:020000040000FA
:060000000A128A110C280F
:10000800FE00030EF0000A08F1000A128A15B22950
:100018000A128A110F28831603130A128A11FB2762
:100028000A128A11C7000A128A11FC270A128A11B9
:10003800C800BF01C001C101C201C301C401C5019B
:10004800C601FB0183010A128A15CA2C8312031305
:100058006508803983160313A00020088312031350
:10006800EA00650883160313A0002007A1002108F1
:1000780083120313EC00E41F4228432844286C141D
:100088006C0803194828492859286C0A031D4D286B
:100098004E2856280030E5000030E4000030E30028
:1000A8000030E200E417E50161280030E500003087
:1000B800E4000030E3000030E2006908803983166C
:1000C8000313A000200883120313EB006B086A06D1
:1000D80003196F28702871286A1769088316031393
:1000E800A0002007A100210883120313EB00E81FDA
:1000F8007E287F2880286B146B080319842885289C
:1001080095286B0A031D89288A2892280030E9005F
:100118000030E8000030E7000030E600E817E901A9
:100128009D280030E9000030E8000030E70000308A
:10013800E6006C086B020318A228A32827296A1F67
:10014800A628A728AF28803083160313A00020080C
:1001580083120313EA066C0883160313A000200811
:1001680083120313ED006B0883160313A000200805
:1001780083120313EC006D0883160313A0002008F4
:1001880083120313EB00620883160313A0002008F0
:1001980083120313ED00660883160313A0002008DA
:1001A80083120313E2006D0883160313A0002008CE
:1001B80083120313E600630883160313A0002008C4
:1001C80083120313ED00670883160313A0002008A9
:1001D80083120313E3006D0883160313A00020089D
:1001E80083120313E700640883160313A000200892
:1001F80083120313ED00680883160313A000200878
:1002080083120313E4006D0883160313A00020086B
:1002180083120313E800650883160313A00020085F
:1002280083120313ED00690883160313A000200846
:1002380083120313E5006D0883160313A00020083A
:1002480083120313E900ED016B0883160313A00062
:10025800A1012108A300831203136C08831603135A
:100268002002A200031CA3032308803AFF00803069
:100278007F02031D41291A302202031C4429452903
:100288009629831203136508640463046204031D3A
:100298004E29502901305129003083160313A0003C
:1002A800200883120313ED000030E5000030E4005D
:1002B8000030E3000030E2006B0883160313A0004F
:1002C800200883120313EC009E296D1C6C296D29EC
:1002D8007A296D0883160313A0000310200C013837
:1002E800A100210883120313ED007C290310ED0CF3
:1002F800621C7F2980298129ED1701308316031399
:10030800A00083120313650DE50CE40CE30CE20C6A
:1003180083160313A00B85290130A000200883123F
:100328000313EC07831203136B086C02031C9D294B
:100338009E2969296A1BA129A229F9296C08031D8C
:10034800A629A729B0290030E5000030E4000030D4
:10035800E3000030E2008F2B6608E207670803110C
:100368000318013E0319B929E307680803110318A4
:10037800013E0319C029E407690803110318013E67
:100388000319C729E507651CCA29CB29ED2A6D1C65
:10039800CE29CF29DC296D0883160313A00003108A
:1003A800200C0138A100210883120313ED00DE2977
:1003B8000310ED0C621CE129E229E329ED17013055
:1003C80083160313A00083120313650DE50CE40CD8
:1003D800E30CE20C83160313A00BE7290130A000FD
:1003E800200883120313EC07ED2A6508803AFF0002
:1003F8006908803A7F02031D0B2A68086402031DFE
:100408000B2A67086302031D0B2A66086202031899
:100418000E2A0F2A9F2AFF3083160313A000FF30ED
:10042800A100FF30A200FF30A30083120313660867
:1004380083160313A4008312031367088316031398
:10044800A50083120313680883160313A6008312FA
:100458000313690883160313A700831203136208A2
:1004680083160313A402831203136308031C630F88
:100478003E2A412A83160313A50283120313640834
:10048800031C640F482A4B2A83160313A6028312FF
:1004980003136508031C650F522A552A8316031394
:1004A800A70283120313831603132408A007250841
:1004B8000318250F602A612AA10726080318260FAA
:1004C800662A672AA20727080318270AA30723080A
:1004D80083120313E5008316031322088312031300
:1004E800E40083160313210883120313E300831621
:1004F8000313200883120313E200803083160313CA
:10050800A000200883120313EA06ED09ED0A6D081E
:10051800031D8F2A902AAD2A0130E2070030031804
:100528000130E307003003180130E40700300318F6
:100538000130E507AD2A6608E2026708031C670F69
:10054800E3026808031C680FE4026908031C690FCA
:10055800E5026508640463046204031DB42AB52A2D
:10056800E92A6D08031DB92ABA2AE92A0030E500EC
:100578000030E4000030E3000030E2008F2B01304F
:1005880083160313A000031083120313E20DE30D77
:10059800E40DE50D83160313A00BC72A831203137A
:1005A800ED1FD72AD82AD92A62146D1CDC2ADD2A25
:1005B800E02A0314ED0DE22A0310ED0D6C0803196F
:1005C800E62AE72AE92A0130EC02E41FEC2AED2AA0
:1005D800C32AEB01ED1FF12AF22A002B6D087F399F
:1005E8000319F72AF82AFB2AEB01EB0A002B621CF5
:1005F800FE2AFF2A002BF82A6B080319042B052B67
:10060800592B0130E207003003180130E3070030AE
:1006180003180130E407003003180130E507651CB2
:10062800162B172B592B620883160313A00083126D
:100638000313630883160313A100831203136408CA
:1006480083160313A200831203136508831603138A
:10065800A3000130A400230DA30CA20CA10CA00C34
:10066800A40B2F2B230883120313E500831603130F
:10067800220883120313E40083160313210883124C
:100688000313E30083160313200883120313E20005
:100698006C0A0319502B512B592B01308316031365
:1006A800A000200883120313EC076C0A03195D2BC2
:1006B8005E2B632B6C08031D622B632B712B0030A0
:1006C800E5000030E4000030E3000030E2006C0890
:1006D800031D6F2B702B712BEA016C1C742B752B6F
:1006E800772BE4177F2B7F3083160313A000200895
:1006F80083120313E4056C0883160313A000031088
:10070800200CA100210883120313E500EA1F8D2B9A
:100718008E2B8F2BE51708008312031331088039BD
:10072800B6003608BB003108B6003607B7003708F0
:10073800C100B01FA02BA12BA22B41144108031903
:10074800A62BA72BB62B410A031DAB2BAC2BB42B26
:100758000030B1000030B0000030AF000030AE0013
:10076800B017BE2B0030B1000030B0000030AF0031
:100778000030AE0035088039B6003608BB063508AB
:10078800B6003607B7003708C000B41FCC2BCD2BF6
:10079800CE2B401440080319D22BD32BE22B400A4E
:1007A800031DD72BD82BE02B0030B5000030B40048
:1007B8000030B3000030B200B417EA2B0030B500A7
:1007C8000030B4000030B3000030B2004008031914
:1007D800EE2BEF2BF42B4108031DF32BF42BFD2BF1
:1007E8000030B1000030B0000030AF000030AE0083
:1007F800F02E2E08B6003608F20034080A128A15C0
:10080800C4210A128A11730883120313C7007208DD
:10081800C6004608B600B701B801B9013908BF00DB
:100828003808BE003708BD003608BC004708B600C7
:10083800B701B801B9013908C5003808C40037083C
:10084800C3003608C2002F08B6003608F200330885
:100858000A128A15C4210A128A1173088312031313
:10086800C7007208C6004608B600B701B801B9014A
:100878003608BC07370803110318013E0319452C35
:10088800BD07380803110318013E03194C2CBE0795
:10089800390803110318013E0319532CBF074708F1
:1008A800B600B701B801B9013608C2073708031105
:1008B8000318013E0319612CC307380803110318F4
:1008C800013E0319682CC407390803110318013EB7
:1008D80003196F2CC5073008B6003608F200320835
:1008E8000A128A15C4210A128A1173088312031383
:1008F800C7007208C6004608B600B701B801B901BA
:100908003608BC07370803110318013E03198D2C5C
:10091800BD07380803110318013E0319942CBE07BC
:10092800390803110318013E03199B2CBF07470818
:10093800B600B701B801B9013608C2073708031174
:100948000318013E0319A92CC3073808031103181B
:10095800013E0319B02CC407390803110318013EDE
:100968000319B72CC5070830B6000310BC0DBD0D20
:10097800BE0DBF0DB60BB92C2F08B6003608F20015
:1009880032080A128A15C4210A128A1173088312BE
:100998000313C7007208C6004608B6004708B70028
:1009A800B801B9013608BC07370803110318013E1E
:1009B8000319DF2CBD07380803110318013E03197A
:1009C800E62CBE07390803110318013E0319ED2C64
:1009D800BF072E08B6003608F20033080A128A1537
:1009E800C4210A128A11730883120313C7007208FC
:1009F800C6004608B6004708B700B801B90136086E
:100A0800BC07370803110318013E03190C2DBD0755
:100A1800380803110318013E0319132DBE073908BE
:100A280003110318013E03191A2DBF070830B60039
:100A38000310BC0DBD0DBE0DBF0DB60B1C2D2E0831
:100A4800B6003608F20032080A128A15C4210A12C2
:100A58008A11730883120313C7007208C600460878
:100A6800B6004708B700B801B9013608BC0737080F
:100A780003110318013E0319422DBD07380803115D
:100A88000318013E0319492DBE073908031103183D
:100A9800013E0319502DBF072F08B6003608F20093
:100AA80034080A128A15C4210A128A11730883129B
:100AB8000313C7007208C6004608B6004708B70007
:100AC800B801B9013608C207370803110318013EF7
:100AD80003196F2DC307380803110318013E0319C2
:100AE800762DC407390803110318013E03197D2D1B
:100AF800C5073008B6003608F20033080A128A150E
:100B0800C4210A128A11730883120313C7007208DA
:100B1800C6004608B6004708B700B801B90136084C
:100B2800C207370803110318013E03199C2DC30798
:100B3800380803110318013E0319A32DC407390807
:100B480003110318013E0319AA2DC5073008B60082
:100B58003608F20034080A128A15C4210A128A11CA
:100B6800730883120313C7007208C6004608B6004C
:100B78004708B700B801B90108300310B60DB70D22
:100B8800B80DB90DFF3E031DC12D3608C207370841
:100B980003110318013E0319D22DC30738080311A6
:100BA8000318013E0319D92DC40739080311031886
:100BB800013E0319E02DC5073C08B6003D08B70003
:100BC8003E08B8003F08B90018300310B90CB80C3B
:100BD800B70CB60CFF3E031DE92D3608C2073708CF
:100BE80003110318013E0319FA2DC307380803112E
:100BF8000318013E0319012EC4073908031103180D
:100C0800013E0319082EC5070830B6000310BC0DB5
:100C1800BD0DBE0DBF0DB60B0A2E41084007B6002C
:100C2800B701B70D3608823EC60037080318013EE3
:100C3800FF3EC7003C2E0130B6000310C20DC30DA5
:100C4800C40DC50DB60B212EBF1F2B2E2C2E2D2EFD
:100C580042140130B6000310BC0DBD0DBE0DBF0D12
:100C6800B60B2F2EFF30C6070318C70AFF30C70779
:100C7800C41F3F2E402E1F2EC001BF1F442E452EDD
:100C8800612EFF303C05B600FF303D05B700FF3050
:100C98003E05B8007F303F05B900390838043704ED
:100CA80036040319582E592E5C2EC001C00A612E35
:100CB800421C5F2E602E612E592E40080319652EA6
:100CC800662E972E0130C207003003180130C30783
:100CD800003003180130C407003003180130C5077D
:100CE800451C772E782E972E4208B6004308B70089
:100CF8004408B8004508B9000130BA00390DB90CEC
:100D0800B80CB70CB60CBA0B822E3908C5003808D7
:100D1800C4003708C3003608C2000130C6070318EC
:100D2800C70A0030C7074708803AFF0080307F02B3
:100D3800031DA02EFF304602031CA32EA42EAF2EA7
:100D48007F3083120313C5008030C4000030C30015
:100D58000030C200E42E831203134708803AFF00D4
:100D680080307F02031DBA2E013046020318BD2EC3
:100D7800BE2ECA2E003083120313C5000030C400F3
:100D88000030C3000030C200BB01E42E83120313FD
:100D98004608B6003608C100FF30C205FF30C3055B
:100DA8007F30C4050030C505411CDB2EDC2EDD2E4E
:100DB800C4174108B6000310360CB7003708C50041
:100DC8003B08B6003608C5044508B1004408B00021
:100DD8004308AF004208AE00080083120313A800BE
:100DE80028080319F82EF92E0D2FA31FFC2EFD2E0F
:100DF8000D2F2009AA002109AB002209AC00230904
:100E0800AD00AA0A0319AB0A0319AC0A0319AD0A03
:100E1800152F2308AD002208AC002108AB002008DC
:100E2800AA002308220421042004031D1C2F1D2FBF
:100E3800262F0030A3000030A2000030A1000030AF
:100E4800A000AC2F9630A4002408A900382F013048
:100E5800A4002408A90701300310AD0CAC0CAB0C9E
:100E6800AA0CFF3E031D302FFE302D05031D3D2F1C
:100E78003E2F2B2F5A2F0130A4002408A907013038
:100E8800AA07003003180130AB07003003180130FF
:100E9800AC07003003180130AD0701300310AD0C6A
:100EA800AC0CAB0CAA0CFF3E031D522FFF302D05D6
:100EB800031D5F2F602F3F2F6C2F0130A9020130D7
:100EC800A4000310AA0DAB0DAC0DAD0DA40B652F3E
:100ED800AC1B6F2F702F762F023029020318752F45
:100EE800762F612F2918792F7A2F822FFF30AA05A4
:100EF800FF30AB057F30AC05FF30AD050310A90C02
:100F08002908A400A501A601A70118300310A40D03
:100F1800A50DA60DA70DFF3E031D8A2F2408AA04C0
:100F28002508AB042608AC042708AD0428080319D3
:100F38009E2F9F2FA42FA31FA22FA32FA42FAD173F
:100F48002D08A3002C08A2002B08A1002A08A00045
:100F580008007B080319B12FB22FFA2F8316031349
:100F68004208F5004108F4004008F3003F08F20089
:100F78004130F9004030F8000030F7000030F6004A
:100F88000A128A15B4220A128A110318CC2FCD2FFF
:100F9800D62FE83083160313C7070318C80A03308F
:100FA800C807F92F4130F5004030F4000030F30055
:100FB8000030F200831603134208F9004108F800D4
:100FC8004008F7003F08F6000A128A15B4220A12F0
:100FD8008A110318F02FF12FF92F183083160313F5
:100FE800C7070318C80AFC30C807FB010800883483
:020FF8001334B0
:101364000B1DB529B629BD298B1EB929BA29BD295A
:10137400FB01FB0A0B1171088A00700E8300FE0E3C
:101384007E0E0900FA00F601F7017208F400F50177
:101394007408F8007508F9007A1CD129D229D829D3
:1013A4007808F6070318F70A7908F70701300310DD
:1013B400F80DF90DFF3E031DD9290310FA0C7A0824
:1013C400031DE529E629CE297708F3007608F20003
:1013D4000800FA007A18EF29F329831203139F15E2
:1013E400F629831203139F111F129F121F144230F8
:1013F400F400F40BFB290000831203131F151F19BB
:10140400042A052A012A1F101E08F400F5010730DA
:10141400FF000310F40DF50DFF0B0B2A83160313C5
:101424001E087407F60075080318750AF700760895
:10143400F8007708F9007908F3007808F20008004A
:101444000310831603132A0D2B0DAC002C088312F2
:101454000313EF006F08031D302A312A3C2A0030A1
:1014640083160313AB000030AA000030A90000303B
:10147400A800B32A831603132808AC002908AD007A
:101484002A08AE002B08AF001F300310AF0CAE0CBF
:10149400AD0CAC0CFF3E031D472A2C08B0003008ED
:1014A40083120313EE0083160313AA17FF30A80553
:1014B400FF30A905FF30AA050030AB059630831232
:1014C4000313EF02EF1F672A682A862A6F08803AFF
:1014D400973E03186E2A6F2A702A312A01300310AE
:1014E40083160313AB0CAA0CA90CA80CFF3E031D16
:1014F400712A0130AC002C0883120313EF07031D7B
:10150400842A852A702AA12A20306F02031C8B2A80
:101514008C2A9C2A312A013083160313AC00031051
:10152400A80DA90DAA0DAB0DAC0B912A01308312A5
:101534000313EF026F08031DA02AA12A8D2A6E0847
:101544000319A52AA62AB32A83160313A809A909ED
:10155400AA09AB09A80A0319A90A0319AA0A0319B3
:10156400AB0A08000030720583120313A000003098
:101574007305A10080307405A2007F307505A300B7
:101584002308220421042004031DC92ACA2AD22ABA
:101594000030F5000030F4000030F3000030F200B9
:1015A40000307605A00000307705A1008030780572
:1015B400A2007F307905A30023082204210420041B
:1015C400031DE52AE62AEE2A0030F9000030F8006F
:1015D4000030F7000030F600F51FF12AF22A162B2E
:1015E4000030A0000030A1000030A2008030A30031
:1015F4007208A0027308031C730F012B022BA102B3
:101604007408031C740F072B082BA2027508031C13
:10161400750F0D2B0E2BA3022308F5002208F400EE
:101624002108F3002008F200F91F192B1A2B3E2B76
:101634000030A0000030A1000030A2008030A300E0
:101644007608A0027708031C770F292B2A2BA10206
:101654007808031C780F2F2B302BA2027908031C67
:10166400790F352B362BA3022308F9002208F80042
:101674002108F7002008F6008030F5068030F906CE
:1016840079087502031D502B78087402031D502B32
:1016940077087302031D502B760872020318532B2C
:1016A400542B562B0310572B031408000F308312AE
:1016B4000313970083160313340883120313CB0018
:1016C40083160313330883120313CA008316031308
:1016D400320883120313C9008316031331088312DB
:1016E4000313C8003F30CF008030CE000030CD005F
:1016F4000030CC000A128A1523260A128A15831296
:1017040003134B0883160313BA00831203134A0806
:1017140083160313B90083120313490883160313B2
:10172400B80083120313480883160313B7003A085A
:1017340083120313B50083160313390883120313AA
:10174400B40083160313380883120313B3008316FB
:101754000313370883120313B2004B30B1009830DF
:10176400B0009630AF008030AE000A128A11902388
:101774000A128A15831203133108CF003008CE00F1
:101784002F08CD002E08CC004130CB008030CA0099
:101794000030C9000030C8000A128A1523260A1234
:1017A4008A15831203134B08E9004A08E800490824
:1017B400E7004808E600BF30E5008030E400003070
:1017C400E3000030E2000A128A112A200A128A1564
:1017D40083120313650883160313AB0083120313E8
:1017E400640883160313AA00831203136308831681
:1017F4000313A90083120313620883160313A800BA
:101804000A128A1522220A128A158316031328083B
:1018140092003508831203139500121508000F3047
:10182400831203139D0083160313340883120313D6
:10183400CB0083160313330883120313CA008316E1
:101844000313320883120313C900831603133108E8
:1018540083120313C8003F30CF008030CE00003025
:10186400CD000030CC000A128A1523260A128A15EC
:10187400831203134B0883160313BA008312031352
:101884004A0883160313B900831203134908831605
:101894000313B80083120313480883160313B70015
:1018A4003A0883120313B50083160313390883120D
:1018B4000313B40083160313380883120313B3000D
:1018C40083160313370883120313B2004B30B1009D
:1018D4009830B0009630AF008030AE000A128A1102
:1018E40090230A128A15831203133108CF0030089B
:1018F400CE002F08CD002E08CC004130CB00803024
:10190400CA000030C9000030C8000A128A15232614
:101914000A128A15831203134B08E9004A08E800E7
:101924004908E7004808E600BF30E5008030E400DD
:101934000030E3000030E2000A128A112A200A1261
:101944008A1583120313650883160313AB008312ED
:101954000313640883160313AA0083120313630892
:1019640083160313A9008312031362088316031357
:10197400A8000A128A1522220A128A158316031352
:10198400280892003508831203139B0012150800DF
:10199400831603138710071142309F008312031329
:1019A4001F139F1303308316031381008B170B1728
:1019B4008B160A128A11AD270A128A15831603138D
:1019C400470883120313A0008316031348088312E5
:1019D4000313A1000030A11BFF30A200A3000130BB
:1019E4000A128A11F1260A128A1583120313230894
:1019F40083160313B40083120313220883160313FC
:101A0400B30083120313210883160313B200831255
:101A14000313200883160313B1005A30B5000030B5
:101A2400B6000A128A1558230A128A15831603135C
:101A3400470883120313A000831603134808831274
:101A44000313A1000030A11BFF30A200A30001304A
:101A54000A128A11F1260A128A1583120313230823
:101A640083160313B400831203132208831603138B
:101A7400B30083120313210883160313B2008312E5
:101A84000313200883160313B1001E30B500003081
:101A9400B6000A128A1511240A128A153B308312E1
:101AA4000313B1009F30B000E830AF006830AE00DF
:101AB40001300A128A15EB210A128A157208831260
:101AC4000313A0007308A1000030A11BFF30A20083
:101AD400A30001300A128A11F1260A128A15831210
:101AE40003132308B5002208B4002108B30020081A
:101AF400B2000A128A1190230A128A158312031360
:101B0400310883160313C6008312031330088316A7
:101B14000313C500831203132F0883160313C40091
:101B2400831203132E0883160313C3003B3083125E
:101B34000313B1009F30B000E830AF006830AE004E
:101B440002300A128A15EB210A128A1572088312CE
:101B54000313A0007308A1000030A11BFF30A200F2
:101B6400A30001300A128A11F1260A128A1583127F
:101B740003132308B5002208B4002108B300200889
:101B8400B2000A128A1190230A128A1583120313CF
:101B9400310883160313BE0083120313300883161F
:101BA4000313BD00831203132F0883160313BC0011
:101BB400831203132E0883160313BB0040308312D1
:101BC4000313B100B130B0009930AF009A30AE00C9
:101BD400831603133E0883120313B50083160313FD
:101BE4003D0883120313B400831603133C088312C5
:101BF4000313B300831603133B0883120313B200C9
:101C04000A128A1190230A128A15831203133108C7
:101C140083160313C20083120313300883160313BD
:101C2400C100831203132F0883160313C000831209
:101C340003132E0883160313BF00DB2C0A128A1128
:101C44000C28831203134F088039D0005008D900A0
:101C54004F08D0005007D1005108E000CE1F332EAA
:101C6400342E352E601460080319392E3A2E4A2E6C
:101C7400600A031D3E2E3F2E472E0030CF00003059
:101C8400CE000030CD000030CC00CE17CF01522E54
:101C94000030CF000030CE000030CD000030CC004A
:101CA4004B088039D0005008D9064B08D0005007A3
:101CB400D1005108E100CA1F602E612E622E61140A
:101CC40061080319662E672E772E610A031D6B2E99
:101CD4006C2E742E0030CB000030CA000030C900D6
:101CE4000030C800CA17CB017F2E0030CB00003073
:101CF400CA000030C9000030C8004B084A04490437
:101D04004804031D862E872EA02E0030CF000030FD
:101D1400CE000030CD000030CC008030CE047F30C7
:101D2400CF045908D0005008CF044F08CB004E0808
:101D3400CA004D08C9004C08C800FF2F6008031DE5
:101D4400A42EA52EAE2E0030CB000030CA000030E9
:101D5400C9000030C800FF2F6008D000D10151082D
:101D6400D30061085002D200031CD30352087F3E03
:101D7400DA0053080318013E003EDB004F08D80088
:101D84004E08D7004D08D6004C08D5000030CF00CF
:101D94000030CE000030CD000030CC000030DF0039
:101DA4000030DE000030DD000030DC00E101242FD3
:101DB40061080319DE2EDF2EFF2E0130D000031040
:101DC400D50DD60DD70DD80DD00BE12E0130D00096
:101DD4000310CC0DCD0DCE0DCF0DD00BEA2EDF1F91
:101DE400F42EF52EF62E4C140130D0000310DC0D29
:101DF400DD0DDE0DDF0DD00BF82E4B085802031D50
:101E04000D2F4A085702031D0D2F49085602031DC2
:101E14000D2F48085502031C102F112F202F5F1778
:101E24004808D5024908031C490FD6024A08031C76
:101E34004A0FD7024B08031C4B0FD8020130D000C5
:101E44005008E1071A306102031C292F2A2FDA2EC9
:101E540058085704560455040319312F322F512FB3
:101E64005C14512F0130D0000310CC0DCD0DCE0DDC
:101E7400CF0DD00B362FDF1F402F412F422F4C1494
:101E84000130D0000310DC0DDD0DDE0DDF0DD00BB5
:101E9400442FFF30DA070318DB0AFF30DB07CE1FBD
:101EA400542F552F342FE101DF1F592F5A2F762F2E
:101EB400FF305C05D000FF305D05D100FF305E05CA
:101EC400D2007F305F05D3005308520451045004FC
:101ED40003196D2F6E2F712FE101E10A762F4C1C2F
:101EE400742F752F762F6E2F610803197A2F7B2F8D
:101EF400AC2F0130CC07003003180130CD0700307F
:101F040003180130CE07003003180130CF074F1CEF
:101F14008C2F8D2FAC2F4C08D0004D08D1004E08CB
:101F2400D2004F08D3000130D400530DD30CD20C8F
:101F3400D10CD00CD40B972F5308CF005208CE00ED
:101F44005108CD005008CC000130DA070318DB0A31
:101F54000030DB075B08803AFF0080307F02031DFE
:101F6400B52FFF305A02031CB82FB92FC72FFF30EB
:101F740083120313DA000030DB000030CF0000309E
:101F8400CE000030CD000030CC00831203135B0878
:101F9400803AFF0080307F02031DD22F01305A02A5
:101FA4000318D52FD62FE32F83120313DA01DB0195
:101FB4000030CF000030CE000030CD000030CC0027
:101FC400D901831203135A08D0005008E000601CA2
:101FD400EC2FED2FEF2FCE17F32F7F30D0005008CA
:101FE400CE056008D0000310500CD1005108CF007A
:0C1FF4005908D0005008CF04972E0800B8
:02400E003A3F37
:00000001FF
