:020000040000FA
:060000000A128A11FC2F18
:100010008316031387100711453083160313A300BB
:100020009C30A2004030A1000030A0005A30A40053
:100030000030A5000A128A15A6260A128A11443039
:1000400083160313A3007A30A2000030A100003011
:10005000A0001E30A4000030A5000A128A15532704
:100060000A128A110C280A128A110028831203131B
:100070003C088039BD003D08C6003C08BD003D0776
:10008000BE003E08CD00BB1F4628472848284D1417
:100090004D0803194C284D285D284D0A031D512891
:1000A00052285A280030BC000030BB000030BA0093
:1000B0000030B900BB17BC0165280030BC0000301F
:1000C000BB000030BA000030B90038088039BD00EC
:1000D0003D08C6063808BD003D07BE003E08CE00FC
:1000E000B71F7328742875284E144E0803197928F1
:1000F0007A288A284E0A031D7E287F288728003008
:10010000B8000030B7000030B6000030B500B717B7
:10011000B80192280030B8000030B7000030B600B7
:100120000030B5003808370436043504031D99281B
:100130009A28B3280030BC000030BB000030BA0061
:100140000030B9008030BB047F30BC044608BD00DD
:100150003D08BC043C08B8003B08B7003A08B600AC
:100160003908B500122A4D08031DB728B828C12840
:100170000030B8000030B7000030B6000030B500E5
:10018000122A4D08BD00BE013E08C0004E083D02C7
:10019000BF00031CC0033F087F3EC7004008031890
:1001A000013E003EC8003C08C5003B08C4003A08B8
:1001B000C3003908C2000030BC000030BB00003072
:1001C000BA000030B9000030CC000030CB00003065
:1001D000CA000030C900CE0137294E080319F128A2
:1001E000F22812290130BD000310C20DC30DC40D49
:1001F000C50DBD0BF4280130BD000310B90DBA0DBB
:10020000BB0DBC0DBD0BFD28CC1F072908290929F2
:1002100039140130BD000310C90DCA0DCB0DCC0D32
:10022000BD0B0B2938084502031D2029370844025D
:10023000031D202936084302031D202935084202E8
:10024000031C2329242933294C173508C2023608F8
:10025000031C360FC3023708031C370FC4023808CB
:10026000031C380FC5020130BD003D08CE071A300F
:100270004E02031C3C293D29ED2845084404430453
:100280004204031944294529642949146429013089
:10029000BD000310B90DBA0DBB0DBC0DBD0B492936
:1002A000CC1F53295429552939140130BD0003109E
:1002B000C90DCA0DCB0DCC0DBD0B5729FF30C7079B
:1002C0000318C80AFF30C807BB1F672968294729D8
:1002D000CE01CC1F6C296D298929FF304905BD004D
:1002E000FF304A05BE00FF304B05BF007F304C0594
:1002F000C00040083F043E043D04031980298129C1
:100300008429CE01CE0A8929391C8729882989297F
:1003100081294E0803198D298E29BF290130B9077B
:10032000003003180130BA07003003180130BB0752
:10033000003003180130BC073C1C9F29A029BF29AD
:100340003908BD003A08BE003B08BF003C08C000A9
:100350000130C100400DC00CBF0CBE0CBD0CC10B68
:10036000AA294008BC003F08BB003E08BA003D086F
:10037000B9000130C7070318C80A0030C807480889
:10038000803AFF0080307F02031DC829FF304702FA
:10039000031CCB29CC29DA29FF3083120313C700B1
:1003A0000030C8000030BC000030BB000030BA0094
:1003B0000030B900831203134808803AFF008030F0
:1003C0007F02031DE529013047020318E829E929C6
:1003D000F62983120313C701C8010030BC000030A6
:1003E000BB000030BA000030B900C601831203130D
:1003F0004708BD003D08CD004D1CFF29002A022AF8
:10040000BB17062A7F30BD003D08BB054D08BD0067
:1004100003103D0CBE003E08BC004608BD003D0870
:10042000BC04AA2808008312031352088039D7009D
:100430005708DF005208D7005707D8005808E100D6
:10044000D11F232A242A252A611461080319292A85
:100450002A2A3A2A610A031D2E2A2F2A372A003017
:10046000D2000030D1000030D0000030CF00D117D2
:10047000D201422A0030D2000030D1000030D0003A
:100480000030CF0056088039D7005708E0006008D8
:100490005F0603194C2A4D2A4E2A5F175608D700CB
:1004A0005707D8005808E000D51F572A582A592A5C
:1004B0006014600803195D2A5E2A6E2A600A031D13
:1004C000622A632A6B2A0030D6000030D500003043
:1004D000D4000030D300D517D601762A0030D600DC
:1004E0000030D5000030D4000030D3006108600235
:1004F00003187B2A7C2AC02A5F1F7F2A802A842A2D
:100500008030D7005708DF066108D7005708E2009F
:100510006008D7005708E1006208D7005708E000DC
:100520004F08D7005708E2005308D7005708CF00FC
:100530006208D7005708D3005008D7005708E200D8
:100540005408D7005708D0006208D7005708D400D5
:100550005108D7005708E2005508D7005708D100C6
:100560006208D7005708D5005208D7005708E200A4
:100570005608D7005708D2006208D7005708D6009F
:10058000E2016008D700D8015808DA006108570274
:10059000D900031CDA035A08803AFF0080307F023A
:1005A000031DD42A1A305902031CD72AD82A152B26
:1005B000831203135208510450044F04031DE12A0F
:1005C000E32A0130E42A0030D7005708E200003067
:1005D000D2000030D1000030D0000030CF006008E1
:1005E000D7005708E1001D2B621CF72AF82A012BBF
:1005F0006208D7000310570C0138D8005808E200F1
:10060000032B0310E20C4F1C062B072B082BE217C1
:100610000130D700520DD20CD10CD00CCF0CD70B1F
:100620000A2B0130D7005708E10783120313600833
:100630006102031C1C2B1D2BF42A5F1B202B212B7A
:100640006C2B6108031D252B262B2F2B0030D2008D
:100650000030D1000030D0000030CF009A2C530879
:10066000CF07540803110318013E0319382BD00794
:10067000550803110318013E03193F2BD1075608F3
:1006800003110318013E0319462BD207521C492BB4
:100690004A2B202C621C4D2B4E2B572B6208D70067
:1006A0000310570C0138D8005808E200592B0310EA
:1006B000E20C4F1C5C2B5D2B5E2BE2170130D70048
:1006C000520DD20CD10CD00CCF0CD70B602B0130BB
:1006D000D7005708E107202C5208803AFF0056083F
:1006E000803A7F02031D7E2B55085102031D7E2B8D
:1006F00054085002031D7E2B53084F020318812B10
:10070000822BDA2BFF30D700FF30D800FF30D90022
:10071000FF30DA005308DB005408DC005508DD0028
:100720005608DE004F08DB025008031C500F992BBF
:100730009A2BDC025108031C510F9F2BA02BDD02CA
:100740005208031C520FA52BA62BDE025B08D7070D
:100750005C0803185C0FAD2BAE2BD8075D0803189F
:100760005D0FB32BB42BD9075E0803185E0ADA07B6
:100770005A08D2005908D1005808D0005708CF00B5
:100780008030D7005708DF06E209E20A6208031D3D
:10079000CA2BCB2BE82B0130CF07003003180130D8
:1007A000D007003003180130D107003003180130A2
:1007B000D207E82B5308CF025408031C540FD00271
:1007C0005508031C550FD1025608031C560FD202C0
:1007D0005208510450044F04031DEF2BF02B1C2C26
:1007E0006208031DF42BF52B1C2C0030D2000030C6
:1007F000D1000030D0000030CF009A2C0130D7005B
:100800000310CF0DD00DD10DD20DD70B002CE21F50
:100810000A2C0B2C0C2C4F14621C0F2C102C132C9C
:100820000314E20D152C0310E20D61080319192CB5
:100830001A2C1C2C0130E102D11F1F2C202CFE2B66
:10084000E001E21F242C252C332C62087F39031988
:100850002A2C2B2C2E2CE001E00A332C4F1C312C9F
:10086000322C332C2B2C60080319372C382C6C2C91
:100870000130CF07003003180130D00700300318D3
:100880000130D107003003180130D207521C492C27
:100890004A2C6C2C4F08D7005008D8005108D900BA
:1008A0005208DA000130DB005A0DDA0CD90CD80CF2
:1008B000D70CDB0B542C5A08D2005908D100580829
:1008C000D0005708CF00610A0319672C682C6C2CE4
:1008D0000130D7005708E107610A0319702C712C09
:1008E000762C6108031D752C762C842C0030D200E8
:1008F0000030D1000030D0000030CF006108031D6F
:10090000822C832C842CDF01611C872C882C8A2C60
:10091000D1178E2C7F30D7005708D1056108D7003A
:100920000310570CD8005808D200DF1F982C992CC0
:100930009A2CD21708008312031323088039F90078
:100940007908A8002308F9007907FA007A08AE00B0
:10095000A21FAB2CAC2CAD2C2E142E080319B12CDD
:10096000B22CC12C2E0A031DB62CB72CBF2C003084
:10097000A3000030A2000030A1000030A000A217A8
:10098000C92C0030A3000030A2000030A1000030CC
:10099000A00027088039F9007908A8062708F9007F
:1009A0007907FA007A08AD00A61FD72CD82CD92CCD
:1009B0002D142D080319DD2CDE2CED2C2D0A031D22
:1009C000E22CE32CEB2C0030A7000030A600003016
:1009D000A5000030A400A617F52C0030A7000030B9
:1009E000A6000030A5000030A4002D080319F92C42
:1009F000FA2CFF2C2E08031DFE2CFF2C082D003096
:100A0000A3000030A2000030A1000030A000FB2FA6
:100A10002008F9007908F00026080A128A15032632
:100A20000A128A11710883120313B4007008B3000C
:100A30003308F900FA01FB01FC017C08AC007B08DB
:100A4000AB007A08AA007908A9003408F900FA0175
:100A5000FB01FC017C08B2007B08B1007A08B00001
:100A60007908AF002108F9007908F00025080A127A
:100A70008A1503260A128A11710883120313B4001F
:100A80007008B3003308F900FA01FB01FC01790892
:100A9000A9077A0803110318013E0319502DAA076C
:100AA0007B0803110318013E0319572DAB077C087F
:100AB00003110318013E03195E2DAC073408F90039
:100AC000FA01FB01FC017908AF077A08031103184A
:100AD000013E03196C2DB0077B0803110318013E7A
:100AE0000319732DB1077C0803110318013E031984
:100AF0007A2DB2072208F9007908F00024080A12BA
:100B00008A1503260A128A11710883120313B4008E
:100B10007008B3003308F900FA01FB01FC01790801
:100B2000A9077A0803110318013E0319982DAA0793
:100B30007B0803110318013E03199F2DAB077C08A6
:100B400003110318013E0319A62DAC073408F90060
:100B5000FA01FB01FC017908AF077A0803110318B9
:100B6000013E0319B42DB0077B0803110318013EA1
:100B70000319BB2DB1077C0803110318013E0319AB
:100B8000C22DB2070830F9000310A90DAA0DAB0D54
:100B9000AC0DF90BC42D2108F9007908F0002408E8
:100BA0000A128A1503260A128A1171088312031386
:100BB000B4007008B3003308F9003408FA00FB01F0
:100BC000FC017908A9077A0803110318013E0319EB
:100BD000EA2DAA077B0803110318013E0319F12D22
:100BE000AB077C0803110318013E0319F82DAC076D
:100BF0002008F9007908F00025080A128A15032652
:100C00000A128A11710883120313B4007008B3002A
:100C10003308F9003408FA00FB01FC017908A90740
:100C20007A0803110318013E0319172EAA077B083F
:100C300003110318013E03191E2EAB077C08031194
:100C40000318013E0319252EAC070830F9000310E4
:100C5000A90DAA0DAB0DAC0DF90B272E2008F9003C
:100C60007908F00024080A128A1503260A128A114C
:100C7000710883120313B4007008B3003308F9003D
:100C80003408FA00FB01FC017908A9077A0803116E
:100C90000318013E03194D2EAA077B080311031800
:100CA000013E0319542EAB077C0803110318013EC3
:100CB00003195B2EAC072108F9007908F00026081B
:100CC0000A128A1503260A128A1171088312031365
:100CD000B4007008B3003308F9003408FA00FB01CF
:100CE000FC017908AF077A0803110318013E0319C4
:100CF0007A2EB0077B0803110318013E0319812ED9
:100D0000B1077C0803110318013E0319882EB207AE
:100D10002208F9007908F00025080A128A1503262E
:100D20000A128A11710883120313B4007008B30009
:100D30003308F9003408FA00FB01FC017908AF0719
:100D40007A0803110318013E0319A72EB0077B0888
:100D500003110318013E0319AE2EB1077C080311DD
:100D60000318013E0319B52EB2072208F9007908CD
:100D7000F00026080A128A1503260A128A11710841
:100D800083120313B4007008B3003308F900340869
:100D9000FA00FB01FC0108300310F90DFA0DFB0D00
:100DA000FC0DFF3E031DCC2E7908AF077A08031116
:100DB0000318013E0319DD2EB0077B080311031849
:100DC000013E0319E42EB1077C0803110318013E0C
:100DD0000319EB2EB2072908F9002A08FA002B089C
:100DE000FB002C08FC0018300310FC0CFB0CFA0C68
:100DF000F90CFF3E031DF42E7908AF077A080311A2
:100E00000318013E0319052FB0077B0803110318CF
:100E1000013E03190C2FB1077C0803110318013E92
:100E20000319132FB2070830F9000310A90DAA0DFA
:100E3000AB0DAC0DF90B152F2E082D07F900FA019B
:100E4000FA0D7908823EB3007A080318013EFF3E8E
:100E5000B400472F0130F9000310AF0DB00DB10DF4
:100E6000B20DF90B2C2FAC1F362F372F382F2F1424
:100E70000130F9000310A90DAA0DAB0DAC0DF90B53
:100E80003A2FFF30B3070318B40AFF30B407B11F7D
:100E90004A2F4B2F2A2FAD01AC1F4F2F502F6C2FF5
:100EA000FF302905F900FF302A05FA00FF302B0535
:100EB000FB007F302C05FC007C087B047A0479045D
:100EC0000319632F642F672FAD01AD0A6C2F2F1C00
:100ED0006A2F6B2F6C2F642F2D080319702F712F21
:100EE000A22F0130AF07003003180130B0070030E7
:100EF00003180130B107003003180130B207321C6B
:100F0000822F832FA22F2F08F9003008FA00310812
:100F1000FB003208FC000130FD007C0DFC0CFB0CDA
:100F2000FA0CF90CFD0B8D2F7C08B2007B08B10088
:100F30007A08B0007908AF000130B3070318B40A8B
:100F40000030B4073408803AFF0080307F02031D70
:100F5000AB2FFF303302031CAE2FAF2FBA2F7F30E1
:100F600083120313B2008030B1000030B0000030B3
:100F7000AF00EF2F831203133408803AFF00803054
:100F80007F02031DC52F013033020318C82FC92F5C
:100F9000D52F003083120313B2000030B1000030AF
:100FA000B0000030AF00A801EF2F83120313330805
:100FB000F9007908AE00FF30AF05FF30B0057F3093
:100FC000B1050030B2052E1CE62FE72FE82FB11730
:100FD0002E08F9000310790CFA007A08B2002808EC
:100FE000F9007908B2043208A3003108A2003008E1
:100FF000A1002F08A000080083010A128A11082806
:101C0600F800F401F5017008F200F3017208F6001D
:101C16007308F700781C102E112E172E7608F4077D
:101C26000318F50A7708F50701300310F60DF70DCE
:101C3600FF3E031D182E0310F80C7808031D242EF2
:101C4600252E0D2E7508F1007408F000080003100B
:101C560083120313650D660DE7006708ED006D0836
:101C6600031D362E372E402E0030E6000030E500EC
:101C76000030E4000030E300A52E6308E7006408A6
:101C8600E8006508E9006608EA001F300310EA0C60
:101C9600E90CE80CE70CFF3E031D492E6708EB0034
:101CA6006B08EC00E517FF30E305FF30E405FF3075
:101CB600E5050030E6059630ED02ED1F632E642E35
:101CC6007E2E6D08803A973E03186A2E6B2E6C2E78
:101CD600372E01300310E60CE50CE40CE30CFF3E56
:101CE600031D6D2E0130E7006708ED07031D7C2EEE
:101CF6007D2E6C2E952E20306D02031C832E842E95
:101D0600902E372E0130E7000310E30DE40DE50DAC
:101D1600E60DE70B872E0130ED026D08031D942EAC
:101D2600952E852E6C080319992E9A2EA52EE30959
:101D3600E409E509E609E30A0319E40A0319E50AD1
:101D46000319E60A08000F3083120313970083165F
:101D56000313230883120313B80083160313220800
:101D660083120313B7008316031321088312031388
:101D7600B60083160313200883120313B5003F3001
:101D8600BC008030BB000030BA000030B9000A1237
:101D96008A1136200A128A1583120313380883160D
:101DA6000313A90083120313370883160313A8002D
:101DB60083120313360883160313A7008312031333
:101DC600350883160313A600290883120313A700F8
:101DD60083160313280883120313A600831603131E
:101DE600270883120313A5008316031326088312FC
:101DF6000313A4004B30A3009830A2009630A10034
:101E06008030A0000A128A119B240A128A158312B6
:101E160003132308BC002208BB002108BA002008CF
:101E2600B9004130B8008030B7000030B60000304D
:101E3600B5000A128A1136200A128A158312031374
:101E46003808D6003708D5003608D4003508D30040
:101E5600BF30D2008030D1000030D0000030CF003B
:101E66000A128A1113220A128A15831203135208C0
:101E7600E6005108E5005008E4004F08E3000A12A6
:101E86008A152A260A128A158312031363088316F3
:101E960003139200240883120313950012150800F9
:101EA6000F30831203139D00831603132308831236
:101EB6000313B80083160313220883120313B70013
:101EC60083160313210883120313B6008316031324
:101ED600200883120313B5003F30BC008030BB00DE
:101EE6000030BA000030B9000A128A1136200A12F0
:101EF6008A1583120313380883160313A900831265
:101F06000313370883160313A80083120313360836
:101F160083160313A70083120313350883160313CE
:101F2600A600290883120313A700831603132808A3
:101F360083120313A60083160313270883120313C1
:101F4600A50083160313260883120313A4004B303F
:101F5600A3009830A2009630A1008030A0000A129B
:101F66008A119B240A128A15831203132308BC00C4
:101F76002208BB002108BA002008B9004130B80089
:101F86008030B7000030B6000030B5000A128A1162
:101F960036200A128A15831203133808D60037082A
:101FA600D5003608D4003508D300BF30D2008030C3
:101FB600D1000030D0000030CF000A128A1113225F
:101FC6000A128A15831203135208E6005108E50027
:101FD6005008E4004F08E3000A128A152A260A125E
:101FE6008A158312031363088316031392002408C9
:0A1FF600831203139B00121508006C
:02400E003A3F37
:00000001FF
