:020000040000FA
:060000000A128A11FC2F18
:10004A00F800781829282D28831203139F153028C1
:10005A00831203139F111F129F121F144230F200C2
:10006A00F20B35280000831203131F151F193E28AF
:10007A003F283B281F101E08F200F3010730FF003B
:10008A000310F20DF30DFF0B4528831603131E0808
:10009A007207F40073080318730AF5007408F6006F
:1000AA007508F7007708F1007608F0000800831653
:1000BA0003138710071142309F00831203131F1383
:1000CA009F13453083160313B0009C30AF004030B5
:1000DA00AE000030AD005A30B1000030B2000A1252
:1000EA008A15F5230A128A11443083160313B000C5
:1000FA007A30AF000030AE000030AD001E30B100E3
:10010A000030B2000A128A15AE240A128A113B3054
:10011A0083120313AD009F30AC00E830AB006830A7
:10012A00AA0001300A128A1125200A128A117008BF
:10013A00F9007108FA000030FA1BFF30FB00FC00DE
:10014A0001300A128A1567250A128A117C0883125D
:10015A000313B1007B08B0007A08AF007908AE003B
:10016A000A128A119B240A128A11831203132D0878
:10017A0083160313C200831203132C088316031376
:10018A00C100831203132B0883160313C0008312C2
:10019A0003132A0883160313BF003B308312031389
:1001AA00AD009F30AC00E830AB006830AA000230E6
:1001BA000A128A1125200A128A117008F900710898
:1001CA00FA000030FA1BFF30FB00FC0001300A1273
:1001DA008A1567250A128A117C0883120313B10053
:1001EA007B08B0007A08AF007908AE000A128A11BB
:1001FA009B240A128A11831203132D0883160313F0
:10020A00BA00831203132C0883160313B90083124E
:10021A0003132B0883160313B800831203132A0847
:10022A0083160313B700403083120313AD00B130B5
:10023A00AC009930AB009A30AA00831603133A082F
:10024A0083120313B10083160313390883120313AD
:10025A00B00083160313380883120313AF00831602
:10026A000313370883120313AE000A128A119B2460
:10027A000A128A11831203132D0883160313BE0070
:10028A00831203132C0883160313BD00831203136E
:10029A002B0883160313BC00831203132A08831640
:1002AA000313BB0066280A128A110028831203135B
:1002BA0061088039E600660883160313A0008312DA
:1002CA0003136108E6006607E7006708831603134D
:1002DA00A20083120313E01F732974297729831656
:1002EA000313221483160313220803197D297E2976
:1002FA009129220A031D822983298D29003083121C
:10030A000313E1000030E0000030DF000030DE00BF
:10031A008312E017E1019B29003083120313E100E5
:10032A000030E0000030DF000030DE006508803970
:10033A00E600660883160313A100210820060319A4
:10034A00A729A829A9292017831203136508E600FB
:10035A006607E700670883160313A10083120313D5
:10036A00E41FB829B929BC2983160313211483165B
:10037A00031321080319C229C329D629210A031DF7
:10038A00C729C829D229003083120313E500003097
:10039A00E4000030E3000030E2008312E417E501D4
:1003AA00E029003083120313E5000030E400003036
:1003BA00E3000030E2008316031322082102031827
:1003CA00E729E8295E2A201FEB29EC29F429803045
:1003DA0083120313E600660883160313A006220895
:1003EA0083120313E600660883160313A300210889
:1003FA0083120313E600660883160313A200230878
:10040A0083120313E600660883160313A1008312FE
:10041A0003135E08E600660883160313A30083121B
:10042A0003136208E6006608DE0083160313230836
:10043A0083120313E6006608E2005F08E600660816
:10044A0083160313A300831203136308E6006608E6
:10045A00DF0083160313230883120313E6006608DA
:10046A00E3006008E600660883160313A3008312FC
:10047A0003136408E6006608E000831603132308E2
:10048A0083120313E6006608E4006108E6006608C2
:10049A0083160313A300831203136508E600660894
:1004AA00E10083160313230883120313E600660888
:1004BA00E50083160313A301210883120313E60040
:1004CA00E7016708E900831603132208831203135E
:1004DA006602E800031CE9036908803AFF008030DD
:1004EA007F02031D7A2A1A306802031C7D2A7E2A9B
:1004FA00D02A83120313610860045F045E04031D9B
:10050A00872A892A01308A2A0030E600660883167B
:10051A000313A300003083120313E1000030E0004C
:10052A000030DF000030DE00831603132108831237
:10053A000313E600660883160313A200D82A231CB5
:10054A00A72AA82AB52A230883120313E600031050
:10055A00660C0138E700670883160313A300B72A5D
:10056A000310A30C831203135E1CBC2ABD2AC02AE3
:10057A0083160313A31701308312E600610DE10C01
:10058A00E00CDF0CDE0CE60BC32A0130E60066083D
:10059A0083160313A2078316031321082202031CDE
:1005AA00D72AD82AA42A201BDB2ADC2A382B22089D
:1005BA00031DE02AE12AEC2A003083120313E1002A
:1005CA000030E0000030DF000030DE009A2C831299
:1005DA0003136208DE07630803110318013E0319B7
:1005EA00F72ADF07640803110318013E0319FE2ADC
:1005FA00E007650803110318013E0319052BE107FB
:10060A00611C082B092BFE2B83160313231C0E2BAC
:10061A000F2B1C2B230883120313E6000310660C0E
:10062A000138E700670883160313A3001E2B031083
:10063A00A30C831203135E1C232B242B272B831654
:10064A000313A31701308312E600610DE10CE00CDD
:10065A00DF0CDE0CE60B2A2B0130E6006608831657
:10066A000313A207FE2B831203136108803AFF00CB
:10067A006508803A7F02031D4C2B64086002031D43
:10068A004C2B63085F02031D4C2B62085E020318A1
:10069A004F2B502BAC2BFF30E600FF30E700FF302A
:1006AA00E800FF30E9006208EA006308EB0064082A
:1006BA00EC006508ED005E08EA025F08031C5F0FA4
:1006CA00672B682BEB026008031C600F6D2B6E2BE7
:1006DA00EC026108031C610F732B742BED026A088C
:1006EA00E6076B0803186B0F7B2B7C2BE7076C085C
:1006FA0003186C0F812B822BE8076D0803186D0A0B
:10070A00E9076908E1006808E0006708DF00660891
:10071A00DE008030E600660883160313A006A309EC
:10072A00A30A2308031D9A2B9B2BBA2B0130831291
:10073A000313DE07003003180130DF070030031807
:10074A000130E007003003180130E107BA2B6208D4
:10075A00DE026308031C630FDF026408031C640FD4
:10076A00E0026508031C650FE10283126108600458
:10077A005F045E04031DC22BC32BF92B83160313DC
:10078A002308031DC92BCA2BF92B0030831203132C
:10079A00E1000030E0000030DF000030DE009A2C7B
:1007AA000130E6000310DE0DDF0DE00DE10DE60B72
:1007BA00D72B83160313A31FE32BE42BE72B8312F8
:1007CA0003135E1483160313231CEC2BED2BF02B5F
:1007DA000314A30DF22B0310A30D22080319F62B01
:1007EA00F72BF92B0130A2028312E01FFD2BFE2BFF
:1007FA00D52B83160313A101A31F042C052C172C38
:10080A0023087F3903190A2C0B2C102C8316031387
:10081A00A101A10A172C831203135E1C152C162C96
:10082A00172C0B2C83160313210803191D2C1E2CBD
:10083A005A2C013083120313DE07003003180130EB
:10084A00DF07003003180130E007003003180130D9
:10085A00E107611C312C322C5A2C5E08E6005F0835
:10086A00E7006008E8006108E9000130EA00690D64
:10087A00E90CE80CE70CE60CEA0B3C2C6908E100F1
:10088A006808E0006708DF006608DE0083160313C5
:10089A00220A0319512C522C5A2C013083120313A9
:1008AA00E600660883160313A20783160313220AB7
:1008BA000319602C612C662C2208031D652C662CFA
:1008CA00782C003083120313E1000030E00000307E
:1008DA00DF000030DE00831603132208031D762C86
:1008EA00772C782CA001221C7B2C7C2C802C831248
:1008FA000313E017862C7F3083120313E600660881
:10090A00E00583160313220883120313E60003107B
:10091A00660CE7006708E10083160313A01F962CF4
:10092A00972C9A2C83120313E117080083120313DE
:10093A002D088039B2003208B7002D08B2003207FC
:10094A00B3003308BD00AC1FAB2CAC2CAD2C3D144E
:10095A003D080319B12CB22CC12C3D0A031DB62C3B
:10096A00B72CBF2C0030AD000030AC000030AB001B
:10097A000030AA00AC17C92C0030AD000030AC0022
:10098A000030AB000030AA0031088039B2003208CA
:10099A00B7063108B2003207B3003308BC00B01FF3
:1009AA00D72CD82CD92C3C143C080319DD2CDE2C6E
:1009BA00ED2C3C0A031DE22CE32CEB2C0030B10099
:1009CA000030B0000030AF000030AE00B017F52C98
:1009DA000030B1000030B0000030AF000030AE008F
:1009EA003C080319F92CFA2CFF2C3D08031DFE2C98
:1009FA00FF2C082D0030AD000030AC000030AB00F9
:100A0A000030AA00FB2F2A08B2003208F000300892
:100A1A000A128A153C230A128A11710883120313D7
:100A2A00C3007008C2004208B200B301B401B501A4
:100A3A003508BB003408BA003308B9003208B800D8
:100A4A004308B200B301B401B5013508C100340846
:100A5A00C0003308BF003208BE002B08B2003208BB
:100A6A00F0002F080A128A153C230A128A1171080B
:100A7A0083120313C3007008C2004208B200B30114
:100A8A00B401B5013208B807330803110318013E4F
:100A9A000319502DB907340803110318013E03192D
:100AAA00572DBA07350803110318013E03195E2DA5
:100ABA00BB074308B200B301B401B5013208BE074F
:100ACA00330803110318013E03196C2DBF073408BC
:100ADA0003110318013E0319732DC00735080311CA
:100AEA000318013E03197A2DC1072C08B2003208F7
:100AFA00F0002E080A128A153C230A128A1171087C
:100B0A0083120313C3007008C2004208B200B30183
:100B1A00B401B5013208B807330803110318013EBE
:100B2A000319982DB907340803110318013E031954
:100B3A009F2DBA07350803110318013E0319A62D84
:100B4A00BB074308B200B301B401B5013208BE07BE
:100B5A00330803110318013E0319B42DBF073408E3
:100B6A0003110318013E0319BB2DC00735080311F1
:100B7A000318013E0319C22DC1070830B200031041
:100B8A00B80DB90DBA0DBB0DB20BC42D2B08B200AE
:100B9A003208F0002E080A128A153C230A128A111A
:100BAA00710883120313C3007008C2004208B2001E
:100BBA004308B300B401B5013208B807330803117A
:100BCA000318013E0319EA2DB90734080311031863
:100BDA00013E0319F12DBA07350803110318013E26
:100BEA000319F82DBB072A08B2003208F0002F08B3
:100BFA000A128A153C230A128A11710883120313F6
:100C0A00C3007008C2004208B2004308B300B4012E
:100C1A00B5013208B807330803110318013E031956
:100C2A00172EB907340803110318013E03191E2EA3
:100C3A00BA07350803110318013E0319252EBB070D
:100C4A000830B2000310B80DB90DBA0DBB0DB20BC6
:100C5A00272E2A08B2003208F0002E080A128A1536
:100C6A003C230A128A11710883120313C300700805
:100C7A00C2004208B2004308B300B401B501320809
:100C8A00B807330803110318013E03194D2EB9079B
:100C9A00340803110318013E0319542EBA07350804
:100CAA0003110318013E03195B2EBB072B08B20080
:100CBA003208F00030080A128A153C230A128A11F7
:100CCA00710883120313C3007008C2004208B200FD
:100CDA004308B300B401B5013208BE073308031153
:100CEA000318013E03197A2EBF07340803110318AB
:100CFA00013E0319812EC007350803110318013E6E
:100D0A000319882EC1072C08B2003208F0002F08F8
:100D1A000A128A153C230A128A11710883120313D4
:100D2A00C3007008C2004208B2004308B300B4010D
:100D3A00B5013208BE07330803110318013E03192F
:100D4A00A72EBF07340803110318013E0319AE2E5C
:100D5A00C007350803110318013E0319B52EC10750
:100D6A002C08B2003208F00030080A128A153C2317
:100D7A000A128A11710883120313C3007008C20091
:100D8A004208B2004308B300B401B50108300310A9
:100D9A00B20DB30DB40DB50DFF3E031DCC2E3208B6
:100DAA00BE07330803110318013E0319DD2EBF07DE
:100DBA00340803110318013E0319E42EC00735084D
:100DCA0003110318013E0319EB2EC1073808B200BC
:100DDA003908B3003A08B4003B08B50018300310CC
:100DEA00B50CB40CB30CB20CFF3E031DF42E320842
:100DFA00BE07330803110318013E0319052FBF0765
:100E0A00340803110318013E03190C2FC0073508D3
:100E1A0003110318013E0319132FC1070830B2004A
:100E2A000310B80DB90DBA0DBB0DB20B152F3D0845
:100E3A003C07B200B301B30D3208823EC200330848
:100E4A000318013EFF3EC300472F0130B2000310D2
:100E5A00BE0DBF0DC00DC10DB20B2C2FBB1F362FFF
:100E6A00372F382F3E140130B2000310B80DB90DD8
:100E7A00BA0DBB0DB20B3A2FFF30C2070318C30AD3
:100E8A00FF30C307C01F4A2F4B2F2A2FBC01BB1F9D
:100E9A004F2F502F6C2FFF303805B200FF30390525
:100EAA00B300FF303A05B4007F303B05B500350882
:100EBA003404330432040319632F642F672FBC01EF
:100ECA00BC0A6C2F3E1C6A2F6B2F6C2F642F3C08B8
:100EDA000319702F712FA22F0130BE07003003189B
:100EEA000130BF07003003180130C0070030031873
:100EFA000130C107411C822F832FA22F3E08B20066
:100F0A003F08B3004008B4004108B5000130B600FC
:100F1A00350DB50CB40CB30CB20CB60B8D2F3508CD
:100F2A00C1003408C0003308BF003208BE000130D7
:100F3A00C2070318C30A0030C3074308803AFF00F8
:100F4A0080307F02031DAB2FFF304202031CAE2FFD
:100F5A00AF2FBA2F7F3083120313C1008030C00035
:100F6A000030BF000030BE00EF2F83120313430886
:100F7A00803AFF0080307F02031DC52F01304202F4
:100F8A000318C82FC92FD52F003083120313C100AD
:100F9A000030C0000030BF000030BE00B701EF2FA4
:100FAA00831203134208B2003208BD00FF30BE05A7
:100FBA00FF30BF057F30C0050030C1053D1CE62F5C
:100FCA00E72FE82FC0173D08B2000310320CB30018
:100FDA003308C1003708B2003208C1044108AD0025
:100FEA004008AC003F08AB003E08AA000800830195
:060FFA000A128A115C28B6
:10167800F800F401F5017008F200F3017208F600B1
:101688007308F700781C492B4A2B502B7608F4076F
:101698000318F50A7708F50701300310F60DF70D62
:1016A800FF3E031D512B0310F80C7808031D5D2B1A
:1016B8005E2B462B7508F1007408F0000800031033
:1016C80083160313260D270DA80028088312031379
:1016D800EF006F08031D712B722B7D2B00308316D2
:1016E8000313A7000030A6000030A5000030A400B6
:1016F800F42B831603132408A8002508A90026083C
:10170800AA002708AB001F300310AB0CAA0CA90CC9
:10171800A80CFF3E031D882B2808AC002C08831258
:101728000313EE0083160313A617FF30A405FF303A
:10173800A505FF30A6050030A705963083120313D0
:10174800EF02EF1FA82BA92BC72B6F08803A973EF3
:101758000318AF2BB02BB12B722B0130031083165B
:101768000313A70CA60CA50CA40CFF3E031DB22B5B
:101778000130A800280883120313EF07031DC52BA7
:10178800C62BB12BE22B20306F02031CCC2BCD2BA8
:10179800DD2B722B013083160313A8000310A40D50
:1017A800A50DA60DA70DA80BD22B0130831203138C
:1017B800EF026F08031DE12BE22BCE2B6E080319F5
:1017C800E62BE72BF42B83160313A409A509A60916
:1017D800A709A40A0319A50A0319A60A0319A70A3F
:1017E80008000F3083120313970083160313300881
:1017F80083120313C700831603132F0883120313DE
:10180800C600831603132E0883120313C50083161C
:1018180003132D0883120313C4003F30CB0080301C
:10182800CA000030C9000030C8000A128A152326F1
:101838000A128A1583120313470883160313B60086
:1018480083120313460883160313B5008312031388
:10185800450883160313B400831203134408831640
:101868000313B300360883120313B100831603135E
:10187800350883120313B000831603133408831248
:101888000313AF0083160313330883120313AE0048
:101898004B30AD009830AC009630AB008030AA00D9
:1018A8000A128A119B240A128A15831203132D081F
:1018B800CB002C08CA002B08C9002A08C8004130F0
:1018C800C7008030C6000030C5000030C4000A12CE
:1018D8008A1523260A128A15831203134708E5007E
:1018E8004608E4004508E3004408E200BF30E10090
:1018F8008030E0000030DF000030DE000A128A117C
:101908005B210A128A1583120313610883160313D5
:10191800A70083120313600883160313A60083121B
:1019280003135F0883160313A500831203135E08CD
:1019380083160313A4000A128A1563230A128A1550
:1019480083160313240892003108831203139500A9
:10195800121508000F30831203139D00831603131A
:10196800300883120313C700831603132F0883124A
:101978000313C600831603132E0883120313C5002E
:10198800831603132D0883120313C4003F30CB00C2
:101998008030CA000030C9000030C8000A128A1519
:1019A80023260A128A158312031347088316031382
:1019B800B60083120313460883160313B500831277
:1019C8000313450883160313B40083120313440852
:1019D80083160313B300360883120313B10083166A
:1019E8000313350883120313B00083160313340856
:1019F80083120313AF0083160313330883120313F0
:101A0800AE004B30AD009830AC009630AB00803063
:101A1800AA000A128A119B240A128A158312031338
:101A28002D08CB002C08CA002B08C9002A08C800BA
:101A38004130C7008030C6000030C5000030C40007
:101A48000A128A1523260A128A15831203134708D5
:101A5800E5004608E4004508E3004408E200BF301A
:101A6800E1008030E0000030DF000030DE000A12C4
:101A78008A115B210A128A158312031361088316DF
:101A88000313A70083120313600883160313A60029
:101A9800831203135F0883160313A500831203132D
:101AA8005E0883160313A4000A128A1563230A1218
:101AB8008A1583160313240892003108831203132E
:101AC8009B001215080083120313A40024080319AD
:101AD8006E2D6F2D832DFC1F722D732D832D79098B
:101AE800A6007A09A7007B09A8007C09A900A60A14
:101AF8000319A70A0319A80A0319A90A8B2D7C0838
:101B0800A9007B08A8007A08A7007908A6007C0825
:101B18007B047A047904031D922D932D9C2D0030AB
:101B2800FC000030FB000030FA000030F900222EE3
:101B38009630A0002008A500AE2D0130A000200896
:101B4800A50701300310A90CA80CA70CA60CFF3E92
:101B5800031DA62DFE302905031DB32DB42DA12D7F
:101B6800D02D0130A0002008A5070130A6070030BD
:101B780003180130A707003003180130A807003008
:101B880003180130A90701300310A90CA80CA70CF1
:101B9800A60CFF3E031DC82DFF302905031DD52DBA
:101BA800D62DB52DE22D0130A5020130A00003107D
:101BB800A60DA70DA80DA90DA00BDB2DA81BE52DC3
:101BC800E62DEC2D023025020318EB2DEC2DD72D38
:101BD8002518EF2DF02DF82DFF30A605FF30A705AD
:101BE8007F30A805FF30A9050310A50C2508A00023
:101BF800A101A201A30118300310A00DA10DA20D8F
:101C0800A30DFF3E031D002E2008A6042108A704EB
:101C18002208A8042308A90424080319142E152E41
:101C28001A2EFC1F182E192E1A2EA9172908FC0087
:101C38002808FB002708FA002608F9000800831284
:101C480003134B088039CC004C08D5004B08CC0056
:101C58004C07CD004D08DC00CA1F332E342E352E1C
:101C68005C145C080319392E3A2E4A2E5C0A031DAF
:101C78003E2E3F2E472E0030CB000030CA000030E9
:101C8800C9000030C800CA17CB01522E0030CB0063
:101C98000030CA000030C9000030C8004708803949
:101CA800CC004C08D5064708CC004C07CD004D08A1
:101CB800DD00C61F602E612E622E5D145D080319BB
:101CC800662E672E772E5D0A031D6B2E6C2E742EE2
:101CD8000030C7000030C6000030C5000030C40026
:101CE800C617C7017F2E0030C7000030C60000307D
:101CF800C5000030C4004708460445044404031DD9
:101D0800862E872EA02E0030CB000030CA0000306F
:101D1800C9000030C8008030CA047F30CB045508A1
:101D2800CC004C08CB044B08C7004A08C600490839
:101D3800C5004808C400FF2F5C08031DA42EA52E6B
:101D4800AE2E0030C7000030C6000030C50000309D
:101D5800C400FF2F5C08CC00CD014D08CF005D0802
:101D68004C02CE00031CCF034E087F3ED6004F081E
:101D78000318013E003ED7004B08D4004A08D300A0
:101D88004908D2004808D1000030CB000030CA0012
:101D98000030C9000030C8000030DB000030DA0035
:101DA8000030D9000030D800DD01242F5D08031968
:101DB800DE2EDF2EFF2E0130CC000310D10DD20D08
:101DC800D30DD40DCC0BE12E0130CC000310C80D7F
:101DD800C90DCA0DCB0DCC0BEA2EDB1FF42EF52E48
:101DE800F62E48140130CC000310D80DD90DDA0DA9
:101DF800DB0DCC0BF82E47085402031D0D2F4608A7
:101E08005302031D0D2F45085202031D0D2F4408D0
:101E18005102031C102F112F202F5B174408D102E9
:101E28004508031C450FD2024608031C460FD3027F
:101E38004708031C470FD4020130CC004C08DD07CB
:101E48001A305D02031C292F2A2FDA2E5408530456
:101E5800520451040319312F322F512F5814512F86
:101E68000130CC000310C80DC90DCA0DCB0DCC0B29
:101E7800362FDB1F402F412F422F48140130CC0052
:101E88000310D80DD90DDA0DDB0DCC0B442FFF3024
:101E9800D6070318D70AFF30D707CA1F542F552F64
:101EA800342FDD01DB1F592F5A2F762FFF305805AD
:101EB800CC00FF305905CD00FF305A05CE007F30E9
:101EC8005B05CF004F084E044D044C0403196D2FD9
:101ED8006E2F712FDD01DD0A762F481C742F752FA8
:101EE800762F6E2F5D0803197A2F7B2FAC2F0130C8
:101EF800C807003003180130C90700300318013043
:101F0800CA07003003180130CB074B1C8C2F8D2FCC
:101F1800AC2F4808CC004908CD004A08CE004B0831
:101F2800CF000130D0004F0DCF0CCE0CCD0CCC0C17
:101F3800D00B972F4F08CB004E08CA004D08C90098
:101F48004C08C8000130D6070318D70A0030D70755
:101F58005708803AFF0080307F02031DB52FFF30FD
:101F68005602031CB82FB92FC72FFF308312031353
:101F7800D6000030D7000030CB000030CA00003057
:101F8800C9000030C800831203135708803AFF00C5
:101F980080307F02031DD22F013056020318D52F3F
:101FA800D62FE32F83120313D601D7010030CB00BD
:101FB8000030CA000030C9000030C800D5018312C3
:101FC80003135608CC004C08DC005C1CEC2FED2FEA
:101FD800EF2FCA17F32F7F30CC004C08CA055C08D6
:101FE800CC0003104C0CCD004D08CB005508CC009C
:081FF8004C08CB04972E0800F1
:02400E003A3F37
:00000001FF
